{
  "_format": "hh-sol-artifact-1",
  "contractName": "ResidencyStore",
  "sourceName": "contracts/ResidencyStore.sol",
  "abi": [
    {
      "inputs": [
        {
          "internalType": "address",
          "name": "hub_",
          "type": "address"
        }
      ],
      "stateMutability": "nonpayable",
      "type": "constructor"
    },
    {
      "anonymous": false,
      "inputs": [
        {
          "indexed": false,
          "internalType": "address",
          "name": "userAddr",
          "type": "address"
        },
        {
          "indexed": false,
          "internalType": "bool",
          "name": "usResidency",
          "type": "bool"
        }
      ],
      "name": "USResidency",
      "type": "event"
    },
    {
      "inputs": [
        {
          "internalType": "uint256",
          "name": "",
          "type": "uint256"
        }
      ],
      "name": "footprints",
      "outputs": [
        {
          "internalType": "bool",
          "name": "",
          "type": "bool"
        }
      ],
      "stateMutability": "view",
      "type": "function"
    },
    {
      "inputs": [
        {
          "components": [
            {
              "components": [
                {
                  "internalType": "uint256",
                  "name": "X",
                  "type": "uint256"
                },
                {
                  "internalType": "uint256",
                  "name": "Y",
                  "type": "uint256"
                }
              ],
              "internalType": "struct Pairing.G1Point",
              "name": "a",
              "type": "tuple"
            },
            {
              "components": [
                {
                  "internalType": "uint256[2]",
                  "name": "X",
                  "type": "uint256[2]"
                },
                {
                  "internalType": "uint256[2]",
                  "name": "Y",
                  "type": "uint256[2]"
                }
              ],
              "internalType": "struct Pairing.G2Point",
              "name": "b",
              "type": "tuple"
            },
            {
              "components": [
                {
                  "internalType": "uint256",
                  "name": "X",
                  "type": "uint256"
                },
                {
                  "internalType": "uint256",
                  "name": "Y",
                  "type": "uint256"
                }
              ],
              "internalType": "struct Pairing.G1Point",
              "name": "c",
              "type": "tuple"
            }
          ],
          "internalType": "struct Proof",
          "name": "proof",
          "type": "tuple"
        },
        {
          "internalType": "uint256[]",
          "name": "input",
          "type": "uint256[]"
        }
      ],
      "name": "proofIsValid",
      "outputs": [
        {
          "internalType": "bool",
          "name": "isValid",
          "type": "bool"
        }
      ],
      "stateMutability": "view",
      "type": "function"
    },
    {
      "inputs": [
        {
          "components": [
            {
              "components": [
                {
                  "internalType": "uint256",
                  "name": "X",
                  "type": "uint256"
                },
                {
                  "internalType": "uint256",
                  "name": "Y",
                  "type": "uint256"
                }
              ],
              "internalType": "struct Pairing.G1Point",
              "name": "a",
              "type": "tuple"
            },
            {
              "components": [
                {
                  "internalType": "uint256[2]",
                  "name": "X",
                  "type": "uint256[2]"
                },
                {
                  "internalType": "uint256[2]",
                  "name": "Y",
                  "type": "uint256[2]"
                }
              ],
              "internalType": "struct Pairing.G2Point",
              "name": "b",
              "type": "tuple"
            },
            {
              "components": [
                {
                  "internalType": "uint256",
                  "name": "X",
                  "type": "uint256"
                },
                {
                  "internalType": "uint256",
                  "name": "Y",
                  "type": "uint256"
                }
              ],
              "internalType": "struct Pairing.G1Point",
              "name": "c",
              "type": "tuple"
            }
          ],
          "internalType": "struct Proof",
          "name": "proof",
          "type": "tuple"
        },
        {
          "internalType": "uint256[]",
          "name": "input",
          "type": "uint256[]"
        }
      ],
      "name": "prove",
      "outputs": [],
      "stateMutability": "nonpayable",
      "type": "function"
    },
    {
      "inputs": [
        {
          "internalType": "address",
          "name": "",
          "type": "address"
        }
      ],
      "name": "usResidency",
      "outputs": [
        {
          "internalType": "bool",
          "name": "",
          "type": "bool"
        }
      ],
      "stateMutability": "view",
      "type": "function"
    }
  ],
  "bytecode": "0x60806040523480156200001157600080fd5b506040516200124e3803806200124e8339818101604052810190620000379190620000e9565b80600260006101000a81548173ffffffffffffffffffffffffffffffffffffffff021916908373ffffffffffffffffffffffffffffffffffffffff160217905550506200011b565b600080fd5b600073ffffffffffffffffffffffffffffffffffffffff82169050919050565b6000620000b18262000084565b9050919050565b620000c381620000a4565b8114620000cf57600080fd5b50565b600081519050620000e381620000b8565b92915050565b6000602082840312156200010257620001016200007f565b5b60006200011284828501620000d2565b91505092915050565b611123806200012b6000396000f3fe608060405234801561001057600080fd5b506004361061004c5760003560e01c806336f7db28146100515780635dbf2a1614610081578063902f8985146100b1578063bcd78406146100cd575b600080fd5b61006b600480360381019061006691906107ee565b6100fd565b6040516100789190610836565b60405180910390f35b61009b600480360381019061009691906108db565b61011d565b6040516100a89190610836565b60405180910390f35b6100cb60048036038101906100c691906108db565b61053e565b005b6100e760048036038101906100e2919061099b565b61062d565b6040516100f49190610836565b60405180910390f35b60016020528060005260406000206000915054906101000a900460ff1681565b600061015d6040518060400160405280600681526020017f696e70757473000000000000000000000000000000000000000000000000000081525061064d565b6101b683836000818110610174576101736109c8565b5b905060200201358484600181811061018f5761018e6109c8565b5b90506020020135858560028181106101aa576101a96109c8565b5b905060200201356106e6565b61020f838360038181106101cd576101cc6109c8565b5b90506020020135848460048181106101e8576101e76109c8565b5b9050602002013585856005818110610203576102026109c8565b5b905060200201356106e6565b82826001818110610223576102226109c8565b5b905060200201353373ffffffffffffffffffffffffffffffffffffffff1614610281576040517f08c379a000000000000000000000000000000000000000000000000000000000815260040161027890610a7a565b60405180910390fd5b73c8834c1fcf0df6623fc8c8ed25064a4148d99388838360028181106102aa576102a96109c8565b5b90506020020135146102f1576040517f08c379a00000000000000000000000000000000000000000000000000000000081526004016102e890610b0c565b60405180910390fd5b7f28ca58c3c1044c5277405071d5e3754aeaa4f91dae2c8647275f0b168ae4a94c83836003818110610326576103256109c8565b5b905060200201351461036d576040517f08c379a000000000000000000000000000000000000000000000000000000000815260040161036490610b9e565b60405180910390fd5b6001600084846004818110610385576103846109c8565b5b90506020020135815260200190815260200160002060009054906101000a900460ff16156103e8576040517f08c379a00000000000000000000000000000000000000000000000000000000081526004016103df90610c0a565b60405180910390fd5b6002838360058181106103fe576103fd6109c8565b5b9050602002013514610445576040517f08c379a000000000000000000000000000000000000000000000000000000000815260040161043c90610c9c565b60405180910390fd5b600260009054906101000a900473ffffffffffffffffffffffffffffffffffffffff1673ffffffffffffffffffffffffffffffffffffffff1663813941b38585856040518463ffffffff1660e01b81526004016104a493929190610eb9565b60206040518083038186803b1580156104bc57600080fd5b505afa1580156104d0573d6000803e3d6000fd5b505050506040513d601f19601f820116820180604052508101906104f49190610f2c565b610533576040517f08c379a000000000000000000000000000000000000000000000000000000000815260040161052a90610fa5565b60405180910390fd5b600190509392505050565b61054983838361011d565b61055257600080fd5b60018060008484600481811061056b5761056a6109c8565b5b90506020020135815260200190815260200160002060006101000a81548160ff02191690831515021790555060016000803373ffffffffffffffffffffffffffffffffffffffff1673ffffffffffffffffffffffffffffffffffffffff16815260200190815260200160002060006101000a81548160ff0219169083151502179055507f8e3ae60e21d8ff9f5e6d7714232751cbbaff6ccd8d9366369baa0f499fb0a6fb336001604051610620929190610fd4565b60405180910390a1505050565b60006020528060005260406000206000915054906101000a900460ff1681565b6106e3816040516024016106619190611085565b6040516020818303038152906040527f41304fac000000000000000000000000000000000000000000000000000000007bffffffffffffffffffffffffffffffffffffffffffffffffffffffff19166020820180517bffffffffffffffffffffffffffffffffffffffffffffffffffffffff8381831617835250505050610785565b50565b6107808383836040516024016106fe939291906110b6565b6040516020818303038152906040527fe7820a74000000000000000000000000000000000000000000000000000000007bffffffffffffffffffffffffffffffffffffffffffffffffffffffff19166020820180517bffffffffffffffffffffffffffffffffffffffffffffffffffffffff8381831617835250505050610785565b505050565b60008151905060006a636f6e736f6c652e6c6f679050602083016000808483855afa5050505050565b600080fd5b600080fd5b6000819050919050565b6107cb816107b8565b81146107d657600080fd5b50565b6000813590506107e8816107c2565b92915050565b600060208284031215610804576108036107ae565b5b6000610812848285016107d9565b91505092915050565b60008115159050919050565b6108308161081b565b82525050565b600060208201905061084b6000830184610827565b92915050565b600080fd5b6000610100828403121561086d5761086c610851565b5b81905092915050565b600080fd5b600080fd5b600080fd5b60008083601f84011261089b5761089a610876565b5b8235905067ffffffffffffffff8111156108b8576108b761087b565b5b6020830191508360208202830111156108d4576108d3610880565b5b9250929050565b600080600061012084860312156108f5576108f46107ae565b5b600061090386828701610856565b93505061010084013567ffffffffffffffff811115610925576109246107b3565b5b61093186828701610885565b92509250509250925092565b600073ffffffffffffffffffffffffffffffffffffffff82169050919050565b60006109688261093d565b9050919050565b6109788161095d565b811461098357600080fd5b50565b6000813590506109958161096f565b92915050565b6000602082840312156109b1576109b06107ae565b5b60006109bf84828501610986565b91505092915050565b7f4e487b7100000000000000000000000000000000000000000000000000000000600052603260045260246000fd5b600082825260208201905092915050565b7f5365636f6e64207075626c696320617267756d656e74206f662070726f6f662060008201527f6d75737420626520796f75722061646472657373000000000000000000000000602082015250565b6000610a646034836109f7565b9150610a6f82610a08565b604082019050919050565b60006020820190508181036000830152610a9381610a57565b9050919050565b7f50726f6f66206d75737420636f6d652066726f6d20617574686f72697479206160008201527f6464726573730000000000000000000000000000000000000000000000000000602082015250565b6000610af66026836109f7565b9150610b0182610a9a565b604082019050919050565b60006020820190508181036000830152610b2581610ae9565b9050919050565b7f466f6f747072696e74206973206d6164652066726f6d207468652077726f6e6760008201527f2073616c74000000000000000000000000000000000000000000000000000000602082015250565b6000610b886025836109f7565b9150610b9382610b2c565b604082019050919050565b60006020820190508181036000830152610bb781610b7b565b9050919050565b7f4f6e6520706572736f6e2063616e206f6e6c7920766572696679206f6e636500600082015250565b6000610bf4601f836109f7565b9150610bff82610bbe565b602082019050919050565b60006020820190508181036000830152610c2381610be7565b9050919050565b7f43726564656e7469616c7320646f206e6f74206861766520555320617320636f60008201527f756e74727920636f646500000000000000000000000000000000000000000000602082015250565b6000610c86602a836109f7565b9150610c9182610c2a565b604082019050919050565b60006020820190508181036000830152610cb581610c79565b9050919050565b7f55535265736964656e7400000000000000000000000000000000000000000000600082015250565b6000610cf2600a836109f7565b9150610cfd82610cbc565b602082019050919050565b600082905092915050565b6000610d2260208401846107d9565b905092915050565b610d33816107b8565b82525050565b60408201610d4a6000830183610d13565b610d576000850182610d2a565b50610d656020830183610d13565b610d726020850182610d2a565b50505050565b600082905092915050565b600082905092915050565b82818337600083830152505050565b610da960408383610d8e565b5050565b60808201610dbe6000830183610d83565b610dcb6000850182610d9d565b50610dd96040830183610d83565b610de66040850182610d9d565b50505050565b6101008201610dfe6000830183610d08565b610e0b6000850182610d39565b50610e196040830183610d78565b610e266040850182610dad565b50610e3460c0830183610d08565b610e4160c0850182610d39565b50505050565b600082825260208201905092915050565b600080fd5b6000610e698385610e47565b93507f07ffffffffffffffffffffffffffffffffffffffffffffffffffffffffffffff831115610e9c57610e9b610e58565b5b602083029250610ead838584610d8e565b82840190509392505050565b6000610140820190508181036000830152610ed381610ce5565b9050610ee26020830186610dec565b818103610120830152610ef6818486610e5d565b9050949350505050565b610f098161081b565b8114610f1457600080fd5b50565b600081519050610f2681610f00565b92915050565b600060208284031215610f4257610f416107ae565b5b6000610f5084828501610f17565b91505092915050565b7f4661696c656420746f207665726966792070726f6f6600000000000000000000600082015250565b6000610f8f6016836109f7565b9150610f9a82610f59565b602082019050919050565b60006020820190508181036000830152610fbe81610f82565b9050919050565b610fce8161095d565b82525050565b6000604082019050610fe96000830185610fc5565b610ff66020830184610827565b9392505050565b600081519050919050565b60005b8381101561102657808201518184015260208101905061100b565b83811115611035576000848401525b50505050565b6000601f19601f8301169050919050565b600061105782610ffd565b61106181856109f7565b9350611071818560208601611008565b61107a8161103b565b840191505092915050565b6000602082019050818103600083015261109f818461104c565b905092915050565b6110b0816107b8565b82525050565b60006060820190506110cb60008301866110a7565b6110d860208301856110a7565b6110e560408301846110a7565b94935050505056fea26469706673582212202033ee3c549aadfa40f337dd623c3406c1cd3a21c84119ce3f16d5353f5ff45f64736f6c63430008090033",
  "linkReferences": {},
  "deployedLinkReferences": {}
}